:020000041A00E0
:10000000402B00102901001A2D01001A2F01001A9F
:100010003101001A3301001A3501001A5A5A5A5A8E
:100020000000000000000000000000003701001A7E
:100030003901001A000000003B01001A631C001A7D
:100040003F01001A791C001A9B31001A3F01001A67
:100050003F01001A3F01001A3F01001A3F01001A38
:10006000A507001A3F01001A3F01001A3F01001ABC
:100070003F01001A3F01001A3F01001A871C001AB5
:100080003F01001A3F01001A3F01001A3F01001A08
:100090003F01001A3F01001A3F01001A3F01001AF8
:1000A0003F01001A3F01001A3F01001A3F01001AE8
:1000B0003F01001A3F01001A3F01001A3F01001AD8
:1000C000DF34001A3F01001A3F01001A3F01001AF5
:1000D0003F01001A3F01001A3F01001A3F01001AB8
:1000E0003F01001A3F01001A3F01001A3F01001AA8
:1000F000000000003F01001A3F01001A3F01001AF2
:10010000000000003F01001A3F01001A3F01001AE1
:100110003F01001ADFF80CD007F02EFF004800471F
:100120004D1C001A402B001005480047FEE7FEE773
:10013000FEE7FEE7FEE7FEE7FEE7FEE7FEE7FEE797
:100140001501001A7046704707490848094A0860B7
:1001500007491160B0F1E05F18BF704706480168B9
:1001600041F400210160704708ED00E00000001A32
:1001700000D8B805000000100052004008F008B98F
:100180007047002070470020704700207047002013
:100190007047002070470020704700207047002003
:1001A00070470020704700207047002070470020F3
:1001B0007047002070470020704708F01FBA704752
:1001C000002070470020704708F064BE70470000B0
:1001D0004FF480724FF0E021002814BFC1F80021D5
:1001E000C1F88021704730B410F0800F4FF0010C3F
:1001F00004BF0CFA00F3420006D000F07F000CEBC5
:10020000400210300CFA00F3FD4CA4F1800000EB2A
:10021000421054F83250C0F800C0DFF8E8C38560DF
:10022000DCF804C01CEA030C0FD004EBC20CDCF8B1
:1002300004C08C4598BF4FF4806C06D9B1EB4C0FCD
:100240002CBF4FF4006C4FF4406C48F2800444EA39
:1002500001414CEA01014160EB4901EB82118860E8
:10026000C86820F0C000C860E848C0F8B031D0F8D5
:10027000B0111942FBD130BC7047DFF888C310B40D
:100280000023E24A0120CCF8083002EB8001D1F8CB
:10029000C04124F08014C1F8C041401C0228F4D3AE
:1002A0004FF0FF31C2F87811C2F87C31C2F8441126
:1002B000D2F8AC01C2F8AC01D2F8BC01C2F8BC0162
:1002C000D2F8B0010028FBD1C2F8B411D2F8B401C1
:1002D0000028FBD1D2F8400120F47F00C2F8400191
:1002E000C94900200B54401CB0F5806FFAD3C849AF
:1002F00000200B54401CB0F5007FFAD3C0484021C9
:1003000000F56863C0E9003100F56C63C0E90231B3
:100310008020CCF80000A3F57463012018601862F7
:100320004FF4810058605862A3F58070836000F537
:1003300090738364B74B03600364C2F85801D2F82A
:10034000A80140F00800C2F8A8014FF0C010C2F8A0
:10035000C00110BC002046E730B501224FF0E02478
:100360001502C4F88051AD49AB480866AC48016835
:1003700041F001010160001D016811F0010FFBD087
:10038000A84802600321C160A7480260001D026006
:100390009E48D0F8401141F00201C0F84011D0F859
:1003A000401111F0020FFAD1A0494A6822F0200250
:1003B0004A600A21C0F8A811D0F8841141F0807178
:1003C000C0F884110921C0F8A4118D4A4021516060
:1003D00097490968002918BF8021964A1268002AA7
:1003E00018BF02221143944A1143C0F84811FFF785
:1003F00044FFC4F8005130BD84490028D1F84001C1
:1004000014BF40F0010020F00100C1F84001704726
:10041000704770478948016841F0400101607047AA
:100420007047002918BF7047410685480160016880
:1004300041F0807101607047002818BF70470220AA
:1004400000226F4901EBC00341F83020401C5A6084
:100450000428F7D36B498020086070472DE9F0032A
:1004600082784FF0010712F0800F1DBF102322F099
:10047000800207EB4201002308BF510090F803C03F
:100480005F4D0CF0030C55F83140C4B95D4E05F5D5
:10049000686805EBC1093468BCF1010FA04445F858
:1004A0003180B0F80480C9F804808088204430602E
:1004B00005D1D018746807FA00F0204370605448E2
:1004C00055F8314000EB41100760846005EBC10036
:1004D0004FF00054808844EA00404B4C04EB8111FB
:1004E00008604A4800EB8200D0F8C0114FF6FF7256
:1004F0009A409143C0F8C011D0F8C011402242EA9E
:100500008C029A401143C0F8C011BDE8F003704757
:1005100070473E4910F0800F18BF00F07F0001EBDC
:100520008000D0F8C01114BF41F4000141F08001F7
:10053000C0F8C0117047354910F0800F18BF00F0A7
:100540007F0001EB8000D0F8C01114BF21F400013E
:1005500021F08001C0F8C01170472B4A2B4910F0E0
:10056000800F4FF001031CD000F07F0002EBC0129F
:1005700092F84CC00CF0C00CC2F84CC000F1100254
:1005800003FA02F2C1F8B421D1F8B4311342FBD11D
:1005900001EB8000D0F8C01141F48001C0F8C01117
:1005A000704702EBC01292F80CC00CF0C00CC2F8FD
:1005B0000CC003FA00F2C1F8B421D1F8B4311342EF
:1005C000FBD101EB8001D1F8C02142F04002C1F81B
:1005D000C0210B4901EB0011496804E60B4910F0FA
:1005E000800F18BF00F07F0001EB8000D0F8C01131
:1005F00014BF41F4803141F00101C0F8C0117047CF
:10060000801100100C00001000100010006000406D
:100610000011001000804020000800070000054085
:10062000281405400C63084004640840003004406E
:10063000FC8E001A008F001A450101008461004001
:1006400054610040C14910F0800F17D000F07F02C4
:1006500001EB8200D0F8C01121F48031C0F8C01144
:10066000D0F8C01141F48001C0F8C011D0F8C01119
:1006700011F4803FFAD142F080006EE701EB800078
:10068000D0F8C01121F00101C0F8C011D0F8C0119C
:1006900041F04001C0F8C01170477047F0B5AB4D54
:1006A00003460024D5F8AC014FF0010610F0010F0D
:1006B000A74806FA03FC00EB031004D0002B08BF88
:1006C000C5F8AC611AD0026882B1A24C426804EB52
:1006D00083146468C4F30E44141B0022002C05D953
:1006E0000668B65C8E54521C9442F9D8C5F8BCC159
:1006F00099498A6822EA0C028A602EE0D5F8AC217A
:1007000012F0010FFAD1954A946A0C60D46A4C60D9
:10071000D5F84071082447F40057C5F84071D5F862
:10072000407117F4005FEFD0D5F8401121F400516B
:10073000C5F8401103F1100106FA01F14CEA01027B
:10074000C5F8B42141EA0C01D5F8B4211142FBD11E
:10075000D5F8AC1111F0010FFAD141681846FFF736
:1007600042FD2046F0BD30B50B46141E00F07F055B
:100770004FF0000184BF764800EB051C06D9DCF879
:100780000820585C5054491C8C42F8D845F0800031
:100790002146FFF728FD204630BD71480068C0F3B0
:1007A000CB0070472DE9F05FDFF8A0A1DAF8440133
:1007B000DAF84811DAF8BC5100EA0106CAF84461D7
:1007C00016F0400F09D0FFF758FD08F073FB65489D
:1007D000016800291CBF0846804716F4807F05D0B9
:1007E0006148016800291CBF0846804716F0800F49
:1007F0004FF00107DFF86091DFF870B11CD0D9F835
:10080000040000281CBF0024DFF844810FD0D9F871
:10081000041007FA04F0084205D008EB0410416800
:100820002046FFF7E0FC641C022CF0D304E0DBF868
:100830000000002818BF804716F0040F0DD0DAF82A
:100840008401C0F38160022804BF49480770494809
:10085000016800291CBF0846804716F0010F48D0E8
:10086000DAF8AC01DFF8108100281CBFD8F80000CE
:10087000002802D001460220884715F47C1F18BFCB
:10088000002415D007FA04F000EA154010F03F0FDD
:100890000BD004F1100007FA00F0CAF8BC0158F8B8
:1008A000241000291CBF08208847641C022CE9D3AF
:1008B00015F03F0F18BF00241BD0D9F8081007FA15
:1008C00004F025EA0102024210D00143C9F80810E1
:1008D00058F8241011B10420884707E0D9F8041013
:1008E00008421EBFDBF8000000288047641C022C71
:1008F000E3D316F0020F08BFBDE8F09F00241F4E9F
:10090000DFF8508007FA04F028421CBF3068002846
:1009100006D008EB84103168007900F0E8008847C1
:1009200004F1100007FA00F028421CBF30680028CC
:1009300007D008EB8410316890F8240000F0E8003C
:100940008847641C022CDDD3BDE8F09F00600040A6
:1009500080110010001100100C0000100010001099
:100960004C610040F08E001AF48E001AFC8E001AC2
:1009700057010010F88E001A048F001A008F001A19
:10098000DFF810C0C00100EB81001A444CF80020D1
:100990007047000000600840DFF808C400EB8002E8
:1009A0000CEB4200ACF5567301792D2914D033F9C4
:1009B000111001F1804101F5A0210A68C2F3036121
:1009C00012F0010F14D14088F74A1258E0B112F02A
:1009D000010008BF704717E01CF8121033F911101E
:1009E00001F1804101F5A021096811F0010F01D04A
:1009F000002070474088EC4AC1F30361125818B1D7
:100A000012F0010008BF7047E84850F82100704715
:100A1000E74810B54168E54B11F0020F4FF0000CAC
:100A200007D0406810F0080F04BF4FF40040186072
:100A300001D0C3F800C0DF49486C10F0020F0FD19D
:100A4000086C10F0010F0BD0486C496CC0F30360C8
:100A500053F82000C1F30741491C4843586201E0A4
:100A6000C3F824C0D44C0C2034F9101001F180419B
:100A700001F5A021096811F0020F18BF43F820C04A
:100A800008D0401C1028EFD91120FFF785FFCB4973
:100A9000086010BDC1F30362C1F3870153F822203F
:100AA000491CB2FBF1F143F82010EAE710B410281A
:100AB00032D8CB1F1E2B32D8C0EB0012DFF800C398
:100AC00002EB42026244525C32B3ACF15A0C3CF984
:100AD0001020541C0DD0092B0BD802F1804202F5D6
:100AE000A0221268C2F303628A4202BF012010BC36
:100AF00070473CF911104A1C11D001F1804101F5F9
:100B0000A0210A6822F0706242EA006040F40060AE
:100B1000086010BC0020704710BC0320704710BC58
:100B20000220704710B5A74AF8B1022832D0032836
:100B300035D0042818BF05285ED09E4B062835D036
:100B40009D4A32F9102012F1010C04BF022010BDA1
:100B5000002902F1804202F5A02234D01168072852
:100B600021F00101116033D036E09148002941683D
:100B700014BF21F00C0121F003014160416814BF52
:100B800041F0030141F0080141600020401C904207
:100B9000FCDB31E00323102200210C2003E00023C2
:100BA000102213210120FFF7EBFE25E098690029B0
:100BB00014BF20F0010040F0010098610020401CAB
:100BC0009042FCDB18E0106840F00100106013E078
:100BD000D96911F0010FFBD0082803D1D96A11F0AF
:100BE000010FFBD0092807D1186C10F0010FFBD0C2
:100BF000186C10F0010F01D0002010BDFEE770B49A
:100C00006C4D002423466A6C0121DFF8A0C1C2F3B9
:100C100003625CF822204243461E686CDFF8A8C1DC
:100C200000EA0C0068646948824215D24FEA420C1F
:100C3000844507D249004FEA410C5B1C0CFB02FCC7
:100C40008445F7D3686C210340EA064041EA03215A
:100C5000084340F040000AE05D48824222BF042081
:100C600070BC7047686C40EA064040F0C0006864A1
:100C700070BC00207047574A4E4990423CBF8A6979
:100C800022F0040207D3544A824287BF8A6942F0A5
:100C90000402052070478A6144498861002070473A
:100CA000444910B54D488A6922F004028A613F49DF
:100CB000886101210620FFF735FF09210620FFF793
:100CC000F5FE0B20FFF79BFF01210920FFF72AFF0C
:100CD00015210920FFF7EAFEFFF79AFE002010BD5C
:100CE000344A10B53D499369044623F004039361E7
:100CF0002E48816101210620FFF714FF09210620FB
:100D0000FFF7D4FE2046FFF77AFF01210920FFF705
:100D100009FF15210920FFF7C9FEFFF779FE002022
:100D200010BD113814286FD2DFE800F06E1E6E235C
:100D300019146E6E6E0F0A6E6E68635E37322D2860
:100D40002748406800F00100704725484068C0F31C
:100D50004000704722484068C0F380007047204838
:100D60004068C0F3C00070471D484068C0F3C01021
:100D700070471B484068C0F300207047194840681E
:100D8000C0F34000704717484068C0F380007047C8
:100D900014484068C0F3C000704712484068C0F370
:100DA000001070478093001A0400054018000010DE
:100DB00000300440000005402890001A0000001098
:100DC0008290001A40420F003DCC00FF005F4C09AA
:100DD00000D01213C0E1E40040787D01001BB70091
:100DE0000010054000200540AE484068C0F34010A8
:100DF0007047AC484068C0F380107047A94840680D
:100E0000C0F3C0107047FFE70020704770B5DFF8EF
:100E100098C200EB80020CEB42040D00608819D0F0
:100E200000F1804000F5A02041681CF812002D2838
:100E30001EBF11F0010F0121FFF774FE618801F15F
:100E4000804000F5A0200029426863D012F0010F15
:100E500050D05FE0B8B100F1804000F5A0200179EA
:100E600011F0010F0FD0016821F0010101606088CD
:100E700000F1804000F5A020406810F0010F02D082
:100E800010F0010FFCD11CF812002D2807D0FFF73D
:100E900048FF20B91CF812000021FFF743FE6088CC
:100EA00000F1804000F5A0204168E088002818BFCC
:100EB00011F0010F13D000F1804000F5A02001686F
:100EC00021F001010160608800F1804000F5A02060
:100ED000406810F0010F02D110F0010FFCD0207912
:100EE0002D2844D0FFF71DFFE8BB20790021FFF734
:100EF00019FE3CE0016841F001010160608800F1E9
:100F0000804000F5A020406810F0010F02D110F0E1
:100F1000010FFCD020792D280DD0644931F9101033
:100F200001F1804101F5A021097811F0010F1CBFEA
:100F30000121FFF7F7FDE088A8B100F1804000F53E
:100F4000A020017911F0010F11D1016841F00101D8
:100F50000160608800F1804000F5A020406810F03A
:100F6000010F04D100E002E010F0010FFAD0207A66
:100F7000002808BF70BD2946BDE8704046E7A0F1D3
:100F80000C02042A12D8494A32F91000421C0DD032
:100F900000F1804000F5A020491E0268C9B222F489
:100FA0007F7242EA81010160002070470220704791
:100FB0003F48016A41F0010101623E4981623E49B8
:100FC00041623E4901620020704739483C49016353
:100FD0003C4941633C4981633C490163C16A11F06A
:100FE000010FFBD00020704770B440F2FF1C304C62
:100FF0004CEA006343F400036361636913F4000F78
:10100000FBD1002342F210755B1CAB42FCDB636931
:10101000C3F34D26002E02BF4FF0FF3070BC704767
:10102000B6F5007F06D3606940F2FF13C0F30800F5
:10103000181A14E0ACF1010C4CEA006343F400030D
:101040006361636913F40003FBD15B1CAB42FCDBFF
:101050006369C3F34D23B342ECD00CF101000E6081
:10106000106070BC00207047102892BF1029042027
:10107000704770B584B015460C461E466A4602A9F4
:10108000FFF7B2FF03AA01A92046FFF7ADFFDDE994
:10109000020148432860DDE900014843306004B0A4
:1010A000002070BD002005408093001A2890001A8F
:1010B0000000054062202000FA7F16041C00000694
:1010C00001000006D3343E020EF00300106000065B
:1010D00010B4FD4A1C2865D2DFE800F00E1113168B
:1010E000181B1D202225272A2C2F313437393C3F4D
:1010F000414446494C4F52550021084645E00021E5
:1011000000E00121012040E0002100E00121022057
:101110003BE0002100E00121032036E0002100E057
:101120000121042031E0002100E0012105202CE014
:10113000002100E00121062027E0002100E001213C
:10114000072022E0022107201FE0002100E001210A
:1011500008201AE00221082017E0002100E0012108
:10116000092012E0002100E001210A200DE0002109
:101170000B200AE000210C2007E000210D2004E0F4
:1011800000210E2001E000210F20430003249C4099
:10119000D2F800C099402CEA040C4CEA010111601D
:1011A00010BC70470321EFE7C8480021C0F81011B8
:1011B000C0F83011C0F85011C0F87011C0F890118B
:1011C000C0F8B011C0F8D011C0F8F011FF21816053
:1011D00001618160016170472DE9F043BB4E00273A
:1011E0000446F269B84601684FF0010909FA01F0B6
:1011F000C0B202427ED1B64A52F82150B060207887
:1012000009FA00F0C0B230610020E8602861206A6D
:10121000A860DFF8C0C260690CF11C02062869D220
:10122000DFE800F003132D4A9276E0682860206919
:101230006860207A616800F00700A74A41EA8041AF
:1012400042EA40500843E8607EE0E0682860206998
:101250006860A088C0F30B01207A00F0070041EA23
:10126000804141EA405040F00640E860A069FFF745
:101270002FFF0746E069FFF72BFF804664E0E06838
:10128000286020696860A06963681CF80010105C21
:1012900001F0070161F31F3343EAC13100F0070099
:1012A00041EA804141EA405040F00940E860A069CD
:1012B000FFF70EFF074647E08848A16950F8211064
:1012C0002960E16950F821006860A06963681CF832
:1012D0000010105C01F0070161F31F33E16900F0B9
:1012E00007001CF801C00CF0070C43EACC3343EABA
:1012F000804000E03FE0515C01F0070140EA4150CE
:1013000040F00340E860A069FFF7E2FE07461BE0FB
:10131000E068286020696860E16963681CF8010082
:1013200000F0070060F31F3343EAC033505C00F065
:10133000070043EA804141EA405040F00640E8603F
:10134000A069FFF7C5FE0746C6F83090306B10F075
:10135000010FFBD0207D07F01F014007800C40EA01
:10136000410008F01F0140EA811040F4404028612C
:101370000120BDE8F0830020BDE8F0832DE9F041B5
:101380000446006852490126504F51F8205006FA91
:1013900000F0C0B2B860207806FA00F0C0B2386140
:1013A000206AA860E068286020696860A088C0F3AF
:1013B0000B01207A00F0070041EA804141EA4050E9
:1013C00040F00640E860A069FFF782FE8046E069D1
:1013D000FFF77EFE3E63217D08F01F024907890C5E
:1013E00041EA420100F01F0041EA801040F4404011
:1013F00028610120BDE8F081354A012952F820001A
:1014000001690CBF41F0010121F001010161704748
:1014100070B50D46040018BF012C0CD0022C18BF6B
:10142000032C08D0042C18BF052C04D040F2452111
:101430002BA000F015FC072D04D940F2462128A06E
:1014400000F00EFC0120A840204AC0B2052C1DD29D
:10145000DFE804F003080D1217001168084008BF08
:1014600070BD17E05168084008BF70BD12E0D16838
:10147000084008BF70BD0DE09169084008BF70BD0D
:1014800008E05169084008BF70BD03E0D169084019
:1014900008BF70BD012070BD70B50D46040018BFB7
:1014A000012C04D040F26F210DA000F0D9FB072DD4
:1014B00004D94FF41C710AA000F0D2FB0120A8400F
:1014C000C0B20249002C1BE01C3104400020004047
:1014D0005C0000107895001A0040028C0895001AF4
:1014E000447269766572735C736F757263655C6C68
:1014F0007063343378785F6770646D612E630000C9
:101500000CBF8860086170BD70B50546A0F18040D1
:101510000C46B0F504201CBFA5F18040B0F50520B5
:101520000DD0A5F18040B0F543201CBFA5F180404F
:10153000B0F5442003D0AB21FEA000F091FB002CBD
:1015400018BF012C0FD0022C18BF032C0BD0042C79
:1015500018BF052C07D0062C18BF072C03D0AC21D0
:10156000F4A000F07DFB28680121A140C9B2084029
:1015700018BF012070BD70B50546A0F180400C4633
:10158000B0F504201CBFA5F18040B0F505200DD0BA
:10159000A5F18040B0F543201CBFA5F18040B0F517
:1015A000442003D0C921E3A000F05AFB002C18BF4F
:1015B000012C0FD0022C18BF032C0BD0042C18BF09
:1015C000052C07D0062C18BF072C03D0CA21D9A0A0
:1015D00000F046FB2868211D012202FA01F1C9B280
:1015E000084018BF012070BD70B50546A0F18040CD
:1015F0000C46B0F504201CBFA5F18040B0F50520D5
:101600000DD0A5F18040B0F543201CBFA5F180406E
:10161000B0F5442003D0E221C6A000F021FB002C4D
:1016200018BF012C0FD0022C18BF032C0BD0042C98
:1016300018BF052C07D0062C18BF072C03D0E321B8
:10164000BCA000F00DFB0120A040286070BD70B56B
:101650000546A0F180400C46B0F504201CBFA5F162
:101660008040B0F505200DD0A5F18040B0F54320B5
:101670001CBFA5F18040B0F5442003D0F921ADA0F6
:1016800000F0EEFA002C18BF012C0FD0022C18BF6E
:10169000032C0BD0042C18BF052C07D0062C18BF28
:1016A000072C03D0FA21A3A000F0DAFA201D0121B3
:1016B00001FA00F0286070BD00281EBF00204870AD
:1016C000704701200870486070472DE9F05FDFF82F
:1016D0008482DFF88492A14EDFF884A21546044686
:1016E0008B46404518BFB44208D0544518BF4C45FE
:1016F00004D04FF498718FA000F0B2FABBF1000F44
:1017000018BFBBF1010F04D040F2311189A000F0E5
:10171000A7FAA06A20F00300A062A06AA0620027D6
:10172000A7602761E760606840F002006060606861
:1017300020F002006060BBF1000F07D0A06A20F02B
:101740000C00A0626878012841D044E02878D0B12C
:101750004FF0FF30444508BF00200BD02146B44273
:1017600008BF012006D0514508BF022002D04945DC
:1017700008BF03206D6850B101280DD0022810D099
:10178000032813D016E06868401EE06023E01C20A8
:10179000FFF702F901460DE01D20FFF7FDF80146B5
:1017A00008E01E20FFF7F8F8014603E01F20FFF7CE
:1017B000F3F80146A1FB050207FB052201FB072107
:1017C000684A002305F0F6FE401EE06003E0A06AD0
:1017D00040F00400A0624FF0FF302060BDE8F09FB1
:1017E00010B50446A0F18040B0F504201CBFA4F160
:1017F0008040B0F505200ED0A4F18040B0F5432024
:101800001CBFA4F18040B0F5442004D040F2731115
:1018100048A000F025FA0020606010BD70B50446B5
:10182000A0F180400D46B0F504201CBFA4F180401B
:10183000B0F505200ED0A4F18040B0F543201CBFC8
:10184000A4F18040B0F5442004D040F2871139A0C3
:1018500000F006FA0020A0606068012D0CBF40F087
:10186000010020F00100606070BD10B50446A0F1D9
:101870008040B0F504201CBFA4F18040B0F50520E5
:101880000ED0A4F18040B0F543201CBFA4F18040ED
:10189000B0F5442004D04FF4D07126A000F0E0F958
:1018A000606840F002006060606820F002006060E4
:1018B00010BD70B50446A0F180400D46B0F504207F
:1018C0001CBFA4F18040B0F505200ED0A4F18040EB
:1018D000B0F543201CBFA4F18040B0F5442004D0F3
:1018E00040F2BF1113A000F0BBF92879002818BFFF
:1018F000012808D0022818BF032804D04FF4E07153
:101900000CA000F0ADF92878002804BFA868A061F9
:101910002AD0012804BFA868E06125D0022804BFAE
:10192000A868206220D0032804BFA86860621BD08A
:10193000FEE70000447269766572735C736F7572BE
:1019400063655C6C7063343378785F74696D65725D
:101950002E6300000040084000400C40005008404A
:1019600000300C4000E1F50561692878072200EBA2
:10197000400002FA00F021EA00006061687801216D
:1019800038B16269287800EB400001FA00F010439A
:101990006061E87840B16269287800EB4000401C43
:1019A00001FA00F010436061A87840B162692878BC
:1019B00000EB4000801C01FA00F010436061E16B15
:1019C0002A78042000EB4202032303FA02F2914337
:1019D000E16329792A7801F0030100EB420001FA62
:1019E00000F0E16B0843E06370BD70B50446A0F100
:1019F000804016460D46B0F504201CBFA4F180407F
:101A0000B0F505200FD0A4F18040B0F543201CBFF5
:101A1000A4F18040B0F5442005D040F2F511AFF2BA
:101A2000EC0000F01DF9002D04BFA66170BD012D72
:101A300004BFE66170BD022D04BF266270BD032D98
:101A400004BF666270BDFEE770B50446A0F1804039
:101A50000D46B0F504201CBFA4F18040B0F5052070
:101A60000FD0A4F18040B0F543201CBFA4F180400A
:101A7000B0F5442005D040F21721AFF2481000F035
:101A8000EFF8A16A2878072200EB400002FA00F084
:101A900021EA0000A0626878012138B1A26A2878A2
:101AA00000EB400001FA00F01043A062A87840B1BA
:101AB000A26A287800EB4000401C01FA00F01043B5
:101AC000A062E878002808BF70BDA26A287800EB01
:101AD0004000801C01FA00F01043A06270BD70B598
:101AE0000446A0F180400D46B0F504201CBFA4F1CF
:101AF0008040B0F505200FD0A4F18040B0F5432020
:101B00001CBFA4F18040B0F5442005D04FF40D7106
:101B1000AFF2E01000F0A4F8002D18BF012D09D09D
:101B2000022D18BF032D05D040F23521AFF2FC1075
:101B300000F096F8002D04BFE06A70BD012D04BFCF
:101B4000206B70BD022D04BF606B70BD032D14BFF0
:101B50000020A06B70BD4FF0FF3130B5154C83B045
:101B6000216000258DF8005001218DF801108DF8BD
:101B700003108DF8021002908DF80450694620463B
:101B8000FFF797FEA560606840F001006060216883
:101B900011F0010FFBD0606840F0020060606068E7
:101BA00020F00200606003B030BD4FF47A7148430A
:101BB000D1E7000000400840234B002A03EB8000DF
:101BC000026814BF114322EA0101016070471E4AF6
:101BD00002EB8000C0F8001270471B4A02EB800045
:101BE000C0F880127047184901EB8000D0F800015E
:101BF0007047154B002A03EB8000026814BF1143A5
:101C000022EA0101016070470F4A02EB8000C0F830
:101C1000001270470C4A02EB8000C0F88012704737
:101C2000094901EB8000D0F800017047064B002AFB
:101C300003EB8000D0F8802014BF114322EA010199
:101C4000C0F880107047000000600F40FEF77CFA7B
:101C50001020FFF745F8FFF7ABF902F01EF9FEE799
:101C6000FEE7F9488169491C8161816911F00F0F14
:101C700004BF0121C17070470020F4490860F24997
:101C800001208862704770B5F14D00212846FFF7AA
:101C9000C5FD03212846FFF76EFC002828D003214C
:101CA0002846FFF7D4FCE84C0026217A012903D00E
:101CB000A078084314D01BE000212846FFF7AEFDB2
:101CC0002846FFF7D2FD01212846FFF7A7FD208A0D
:101CD000401C81B22182608A814208BF267207E0DF
:101CE00003212846FFF7FBFE606226820120A070D8
:101CF0002846BDE870400121FFF790BD0023002A6F
:101D0000D8BF704731F813C020F813C05B1C9A424B
:101D1000F8DC704710B5044610F0010F4FF4805105
:101D20004FF0030002D0FFF758FF01E0FFF74FFF2D
:101D300014F0020F4FF001014FF0030002D0FFF743
:101D40004CFF01E0FFF743FF14F0040F4FF00201D6
:101D50004FF0030002D0FFF740FF01E0FFF737FF2D
:101D600014F0080F4FF004014FF0030002D0FFF70A
:101D700034FF01E0FFF72BFF14F0100F4FF00801C4
:101D80004FF0030002D0FFF728FF01E0FFF71FFF2D
:101D900014F0200F4FF010014FF0030002D0FFF7B6
:101DA0001CFF01E0FFF713FF14F0400F4FF020017C
:101DB0004FF0000002D0FFF710FF01E0FFF707FF30
:101DC00014F0800F4FF400414FF0050002D0FFF7F0
:101DD00004FF01E0FFF7FBFE14F4807F4FF4803135
:101DE0004FF0050002D0FFF7F8FE01E0FFF7EFFE2D
:101DF00014F4007F4FF020014FF0030002D0FFF7F2
:101E0000ECFE01E0FFF7E3FE14F4806F4FF04001B9
:101E10004FF0030002D0FFF7E0FE01E0FFF7D7FE2E
:101E200014F4006F4FF400514FF0030002D0FFF79D
:101E3000D4FE01E0FFF7CBFE14F4805F4FF4805135
:101E40004FF0050002D0FFF7C2FE01E0FFF7C5FE2C
:101E500014F4005F4FF400514FF0050002D0FFF77B
:101E6000B6FE01E0FFF7B9FE14F4804F4FF4804155
:101E70004FF0050002D0FFF7AAFE01E0FFF7ADFE2C
:101E800014F4004F4FF480714FF0030003D0BDE80D
:101E90001040FFF79CBEBDE81040FFF79EBE6D48A6
:101EA00010B581686C4C218401680068C1F3001191
:101EB00000F4804041EA5030E08368480088E084C4
:101EC00061498869C0F34F00E08501F15C00027848
:101ED00084F83820427884F83920827884F83A20CF
:101EE000C27884F83B20027984F83C20427984F857
:101EF0003D20827984F83E20C07984F83F008869CB
:101F0000A622C0F34703072104F1380001F07CFF4B
:101F1000534800680028A08C14BF40F4804020F48F
:101F20008040A0844F4A2023A2F14001002031F8D4
:101F300010C022F810C0401C9842F8DB10BD4A487F
:101F400001684A4801604A4909684160494909688D
:101F5000816049490968C1604849062008607047A6
:101F60004FF080410A6842F400320A608A8842F0E9
:101F700004028A80424A6FF01F0C1368414AB3FB87
:101F8000F2F30CEB431C8B884CEA03038B80B2FB0F
:101F9000F0F0401EA1F80001A1F800020020A1F815
:101FA0000401A1F804020122C1F800234FF4A04368
:101FB000C1F80433C1F808235B1CC1F80C33324B61
:101FC0001A6002221B1D1A6008650811486588887E
:101FD00020F00400888070472DE9F05F1A4D044618
:101FE000007895F801C0E9792A4FDFF8A080DFF882
:101FF000A0A04CF0010241F001034FF000094FF4A2
:102000007A7BA7F180069B2800F094837EDC42282F
:1020100000F01B8557DC3F2800F0F9833CDC0328E7
:1020200004BF85F80990BDE8F09F172800F00383EE
:102030001B2818BFBDE8F09F94F82400064981F8DA
:102040003600BDE8F09F00007C0000100034044022
:1020500000400C4000610F4000210010006400208F
:102060002471002040210010107100200000042085
:1020700014710020187100201C71002000E0004045
:102080000000001000512502680500400C230010DC
:102090000010044004220010402800F0E083412892
:1020A00018BFBDE8F09FA0683060E068B0602069AC
:1020B00030616069B061A0693062E069B0624CF083
:1020C000800000F0DABB472800F0DA830BDC4528FB
:1020D00002BF606AE861BDE8F09F462804BF606AFD
:1020E0002862BDE8F09F692800F077826A2818BF4F
:1020F000BDE8F09FA06820B13063206A3060EB71CA
:102100006A70E06860B17063206A00E043E0B0602C
:10211000E87940F00200E871687840F002006870E9
:10212000206950B1B063206A3061E87940F0040062
:10213000E871687840F004006870606950B1F0633D
:10214000206AB061E87940F00800E871687840F0F2
:1021500008006870A06950B13064206A3062E87984
:1021600040F01000E871687840F010006870E06995
:1021700050B17064206AB062E87940F02000E871E4
:10218000687840F020006870FE48818C41F0800142
:102190008184BDE8F09FB02800F0168272DCA6288A
:1021A00015D060DCA02800F06B81A22818BFBDE824
:1021B000F09F606A58B1A881F249B1F820C0401E72
:1021C000012101FA00F00CEA0000E8812970A06802
:1021D00020B13063206A3060EB716A70E06850B102
:1021E0007063206AB060E87940F00200E8716878B6
:1021F00040F002006870206950B1B063206A30611D
:10220000E87940F00400E871687840F004006870F4
:10221000606950B1F063206AB061E87940F008006D
:10222000E871687840F008006870A06950B13064C7
:10223000206A3062E87940F01000E871687840F078
:1022400010006870E069002800F0FB837064206A69
:10225000B062E87940F02000E871687840F0200032
:10226000687000F0EEBBAE2800F08483AF2818BF82
:10227000BDE8F09FA189C3484184408CBDE8F05F70
:1022800048E5FFE7CC2800F0EF8360DCC92800F0C8
:10229000FC82CA2818BFBDE8F09FBB48A0F8009098
:1022A000BA48A0F80090BA48A0F80090B948A0F841
:1022B0000090B948A0F80090B848A0F8009085F8C0
:1022C000059085F80790C8F80090C8F80490C8F801
:1022D0000890C8F80C90C8F81090C8F81490C8F886
:1022E0001890C8F81C90C8F82090C8F82490AC4802
:1022F000C8F82890C8F82C90A0F80490A0F8069090
:10230000A0F80890A0F80A90A0F80C90A0F80E9001
:10231000C6F83090C6F83490C6F83890C6F83C90AD
:10232000C6F84090E438C6F84490818C21F08001D2
:102330008184818C21F48061818485F8069085F800
:102340000090BDE8F05F01219648FFF767BAE528E5
:1023500010D0E62818BFBDE8F09F9348A16801603F
:102360000068CAF81800A520CAF800008F49E06884
:1023700000F0A7BB00210846FFF73EF8894C85F81E
:102380000A9000212046C5F830B0FFF747FA884888
:102390008849C0F80490C160FEF71EFF7A48A0F893
:1023A00000907A48A0F800907948A0F80090794809
:1023B000A0F800907848A0F800907848A0F8009025
:1023C00085F8059085F8069085F80790C7F8009085
:1023D000C7F80490C7F80890C7F80C90C7F8109099
:1023E000C7F81490C8F80090C8F80490C8F808908E
:1023F000C8F80C90C8F81090C8F81490C8F8189055
:10240000C8F81C90C8F82090C8F824906A48C8F80A
:102410002890C8F82C90A0F80490A0F80690A0F896
:102420000890A0F80A90A0F80C90A0F80E90F4384C
:10243000818C21F080018184818C21F480618184F0
:10244000C6F83490C6F83890C6F83C90C6F840906C
:10245000C6F84490C5F8209085F8009090F83610A2
:1024600021F0010180F8361001210020FEF7C4FFA1
:1024700001212046FFF7D2F90120A872BDE8F09FA4
:102480004048A2680260E268426022698260626934
:10249000C260A2690261E2694261626822F07F4221
:1024A00082610268CAF820204268CAF82420826843
:1024B000CAF82820C268CAF82C200269CAF830205D
:1024C0004269CAF834208069CAF838003A4A484656
:1024D00021F00101A2F80490A2F80690A2F8089059
:1024E000A2F80A90A2F80C90A2F80E90C6F83090CC
:1024F000C6F83490C6F83890C6F83C90C6F84090BC
:10250000C6F84490C7F80090C7F80490F8603861A6
:10251000C7F808907861C8F80000C8F804006A7924
:10252000C8F80800C8F80C0022F00102C8F8100032
:1025300022F00202C8F8140021F0020122F0040285
:10254000C8F8180021F0040122F00802C8F81C00A5
:1025500021F00801C8F8200022F0100321F0100239
:10256000C8F82400C8F82800C8F82C0033F020016F
:10257000697122F02002EA7108BFA87108498880B9
:10258000C8801BE0002100100064002008640020C7
:102590000C64002010640020186400201C640020DB
:1025A000E421001000400840047100200871002060
:1025B0003822001000220020F421001008814881F8
:1025C0008881C881BDE8F09F606A2863CAF814005A
:1025D000A520CAF80000BDE8F09FFF4F85F80090E5
:1025E000B88C40F08000B8840120DFF8F083DFF879
:1025F000F09368720026B86904EB061110B90868F8
:10260000000AB861B8F80000082309EB00120020A6
:1026100031F810C022F810C0401C9842F8DB04F0DA
:102620005EFF18B9A88A40F00100A882761C042E2B
:10263000E1DBBDE8F09F0021EA48FFF7EFF8EA4848
:10264000A0F80090E548A0F80090E848A0F80090B5
:10265000E748A0F80090E748A0F80090E648A0F806
:10266000009085F80590C5F830B085F80690C8F858
:102670000090C8F80490C8F80890C8F80C90C8F802
:102680001090C8F81490C8F81890C8F81C90C8F8B2
:102690002090C8F82490D948C8F82890C8F82C9001
:1026A000A0F80490A0F80690A0F80890A0F80A906E
:1026B000A0F80C90A0F80E90C6F83090C6F83490B0
:1026C000C6F83890C6F83C90C6F84090C6F84490DA
:1026D000C7F80090C7F80490C7F80890C7F80C90A6
:1026E000C7F81090C7F81490F43885F8009090F867
:1026F000361021F0010180F83610E87920F0010051
:1027000020F0020020F0040020F0080020F010006B
:1027100020F02000E871BA48A0F80490A0F80690D4
:10272000A0F80890A0F80A90A0F80C90A0F80E90DD
:10273000BDE8F09FB349206AB34E81FB00108110C1
:10274000A1EBE0703060306805F00BFAAF4905F09E
:1027500014F8AF490860A068E86220B180B2FFF7C2
:10276000FFFBC5F830B03068CAF80C00E86ACAF858
:102770001000A520CAF800002C79A648052CA6490F
:10278000A64A34684FF0FF3C4FF4FA6327D30B2C72
:102790000CD29B1003600068CAF808003068A1FBE7
:1027A0000010C0080CEB8000906004E03468142C2A
:1027B00023D116E090608B4C00212046FFF72EF8C5
:1027C00096492046FFF775F8A97A002908BFBDE8A9
:1027D000F09F01212046BDE8F05FFFF71FB80B2CEA
:1027E0000BD2C0F800B00068CAF808003068A1FB3E
:1027F0000010C0080CEB4000DCE703600068CAF87A
:1028000008003068A1FB0010C008401ED2E76068D5
:10281000062828BFBDE8F09FDFE800F003080D128E
:10282000171CA06870606A70BDE8F09FE068F060F7
:102830004CF0020021E0206970614CF004001CE0C3
:102840006069F0614CF0080017E0A06970624CF01C
:10285000100012E0E069F0624CF020000DE0A0688A
:102860007060E068F060206970616069F061A06983
:102870007062E069F0624CF040006870BDE8F09F63
:10288000606ABDE8F05F01F0CFBAA06858B1644853
:102890003968406B0029D8BF404200EBD07040102F
:1028A0003063EB716A70E06888B15D487968806B6D
:1028B0000029D8BF404200EBD07040107063E87927
:1028C00040F00200E871687840F00200687020690A
:1028D00088B15348B968C06B0029D8BF404200EBAB
:1028E000D0704010B063E87940F00400E871687877
:1028F00040F004006870606988B14948F968006C6C
:102900000029D8BF404200EBD0704010F063E87956
:1029100040F00800E871687840F008006870A0692D
:1029200088B13F483969406C0029D8BF404200EB6C
:10293000D07040103064687840F010006870E8791A
:1029400040F01000E871E069002808BFBDE8F09F82
:1029500033487969806C0029D8BF404200EBD070C1
:1029600040107064E87940F02000E871687840F029
:10297000200082E7A06820B13063206A3060EB71EC
:102980006A70E06850B17063206AB060E87940F026
:102990000200E871687840F002006870206950B168
:1029A000B063206A3061E87940F00400E87168782B
:1029B00040F004006870606950B1F063206AB06153
:1029C000E87940F00800E871687840F00800687025
:1029D000A06938B3306426E00021001008640020AC
:1029E0000000002000400840006400200C6400202B
:1029F00010640020186400201C640020F4210010E2
:102A0000E4210010676666663064002000401C46C2
:102A10004C01001034640020CDCCCCCC1C22001022
:102A20007C00001009E0206A3062E87940F0100074
:102A3000E871687840F010006870E06900287FF461
:102A400005AC0120A871FFF79FBBFE48A16801609B
:102A5000E1684160216981606169C160A1690161CA
:102A6000E1694161BDE8F09FA068CAF88000E068B4
:102A7000CAF884002069CAF888006069CAF88C0026
:102A8000DAF88010F0480160DAF88410EF4A11603B
:102A9000DAF88830EE490B60DAF88CC0ED4BC3F8F9
:102AA00000C0D0F800C0EC48C0F800C01268426016
:102AB000096881601968C160E84906200860E84932
:102AC00001200860BDE8F09FE64910B503200860CA
:102AD000081D016811F0010FFBD000234FF4507264
:102AE00007210120FDF74CFF012211461046FFF798
:102AF00063F800234FF4507208210120FDF740FFD6
:102B0000012202211046FFF757F800234FF45072BC
:102B100009210120FDF734FF012204211046FFF7AF
:102B20004BF800234FF450720A210120FDF728FFD3
:102B3000012208211046FFF73FF800234FF450729E
:102B40000B210120FDF71CFF012210211046FFF789
:102B500033F800234FF450720C210120FDF710FFD1
:102B6000012220211046FFF727F800234FF450726E
:102B70000D210120FDF704FF012240211046FFF73F
:102B80001BF800234FF450720E210120FDF7F8FED0
:102B9000012280211046FFF70FF800234FF45072F6
:102BA00005210120FDF7ECFE012211021046FFF77E
:102BB00003F800234FF4507205210120FDF7E0FED9
:102BC000012251021046FEF7F7FF00234FF4507226
:102BD00009210220FDF7D4FE012291021046FEF7E2
:102BE000EBFF00234FF450720B210220FDF7C8FECB
:102BF0000122D1021046FEF7DFFF00234FF450728E
:102C00000C210220FDF7BCFE012211031046FEF745
:102C1000D3FF00234FF450720D210220FDF7B0FEC8
:102C2000012251031046FEF7C7FF00234022194638
:102C30000420FDF7A5FE002201210220FEF7BCFFC3
:102C40000023402201210420FDF79AFE02210022E8
:102C50000846FEF7B1FF0023402202210420FDF7C1
:102C60008FFE002204210220FEF7A6FF002340224F
:102C700003210420FDF784FE002208210220FEF734
:102C80009BFF0421002340220846FDF779FE002225
:102C900010210220FEF790FF00234022052104208E
:102CA000FDF76EFE002220210220FEF785FF0023A3
:102CB000402206210420FDF763FE0022402102206D
:102CC000FEF77AFF0023402207210520FDF758FE7A
:102CD000002280210220FEF76FFF002340220C21FA
:102CE0000620FDF74DFE00224FF480710220FEF712
:102CF00063FF0023402219460520FDF741FE002214
:102D00004FF400710220FEF757FF002340220121FB
:102D10000520FDF735FE00224FF480610220FEF70A
:102D20004BFF0023402202210520FDF729FE00224F
:102D30004FF400610220FEF73FFF002340220321F1
:102D40000520FDF71DFE00224FF480510220FEF702
:102D500033FF0023402204210520FDF711FE00224D
:102D60004FF400510220FEF727FF052100234022E7
:102D70000846FDF705FE00224FF480410220FEF7D1
:102D80001BFF0023402206210520FDF7F9FD00224C
:102D90004FF400410220FEF70FFF002340221946A6
:102DA0000120FDF7EDFD002210211046FEF704FF83
:102DB000002340220A210220FDF7E2FD00224FF409
:102DC00080411046FEF7F8FE01210023402208460C
:102DD000FDF7D6FD00224FF480711046FEF7ECFEA1
:102DE0000023402202210120FDF7CAFD00224FF4FA
:102DF00000711046FEF7E0FE01234FF4107204212B
:102E00000720FDF7BDFD012211030320FEF7D4FECC
:102E10004FF480510320FEF7E0FE00234FF41072C0
:102E200001210620FDF7ACFD012211460320FEF72B
:102E3000C3FE01210320FEF7D0FE00234FF41072E1
:102E4000022111E0CC21001010710020147100202B
:102E5000187100201C7100200000042000E00040D8
:102E600020710020101405400620FDF789FD012285
:102E700002210320FEF7A0FE02210320FEF7ADFE93
:102E800000234FF4107203210620FDF779FD012283
:102E900004210320FEF790FE04210320FEF79DFE8F
:102EA00000234FF4107204210620FDF769FD002273
:102EB00008210320FEF780FE08210320FEF78DFE87
:102EC00000234FF4107205210620FDF759FD002262
:102ED00010210320FEF770FE10210320FEF77DFE77
:102EE000062100234FF410720846FDF749FD002229
:102EF00020211046FEF760FE20210020FEF76DFE27
:102F000004234FF4107207210620FDF739FD00223B
:102F10004FF400410520FEF74FFE4FF4004105201D
:102F2000FEF75BFE04234FF4107208210620FDF724
:102F300027FD012211040520FEF73EFE4FF48031EB
:102F40000520FEF74AFE00234FF4107209210620E7
:102F5000FDF716FD012220210320FEF72DFE202182
:102F60000320FEF73AFE00234FF410720A210620D8
:102F7000FDF706FD012240210320FEF71DFE402142
:102F80000320FEF72AFE00234FF4107205210720CC
:102F9000FDF7F6FC012251030320FEF70DFE4FF46E
:102FA00000510320FEF719FE04234FF4107208218C
:102FB0001846FDF7E5FC012211030520FEF7FCFD94
:102FC0004FF480510520FEF708FE04234FF41072E1
:102FD00009211846FDF7D4FC012251030520FEF714
:102FE000EBFD4FF400510520FEF7F7FD04234FF4ED
:102FF00010720A211846FDF7C3FC01229103052037
:10300000FEF7DAFD4FF480410520FEF7E6FD0023D0
:103010004FF4107219460720FDF7B2FC012211028D
:103020000320FEF7C9FD4FF480710320FEF7D5FDA4
:103030000623582219460220FDF7A2FC0423DA01D8
:1030400005210220FDF79CFC012220210520FEF72E
:10305000B3FD0423DA0103210220FDF791FC0122D4
:1030600008210520FEF7A8FD08210520FEF7B5FD83
:1030700020210520FEF7B1FD002340220321072077
:10308000FDF77EFC00224FF400610320FEF794FD63
:103090000023402206210320FDF772FC002240217C
:1030A0001046FEF789FD0423402207210320FDF787
:1030B00067FC00224FF480610520FEF77DFD0423AC
:1030C000402208210320FDF75BFC00224FF4006141
:1030D0000520FEF771FD0023402201210720FDF7A6
:1030E0004FFC00224FF400710320FEF765FD002322
:1030F000402202210720FDF743FC00224FF48061AB
:103100000320FEF759FD0423402201210320FDF78F
:1031100037FC00224FF480710520FEF74DFD04239B
:10312000402202210320FDF72BFC0022BDE81040C5
:103130004FF400710520FEF73FBD10B40023844614
:10314000002A05D9CC5C0CF803405B1C9A42F9D8E4
:103150006549086010BC70474FF08042918841F08B
:1031600004019180B2F800114FF47A734843B0FB28
:10317000F3F0884228BF481E4B1F984228BF481EC4
:10318000A2F80401A2F80402908820F004009080C4
:103190007047564804210160704770B50021084609
:1031A000FEF736F9524DB8B100210120FEF730F993
:1031B00030B100210846FEF76FF9686D401C686564
:1031C00000210220FEF724F930B100210120FEF792
:1031D00063F9A86D401CA8654649E86C01F5947434
:1031E00008B30A68B0F904301A440A604A68B0F9B2
:1031F00006301A444A608A68B0F908301A448A6076
:10320000CA68B0F90A301A44CA600A69B0F90C30C9
:103210001A440A614A69B0F90E301A444A610068DA
:10322000000A88611EE0EC640868B4F904201044C8
:1032300008604868B4F90620104448608868B4F90A
:10324000082010448860C868B4F90A201044C86097
:103250000869B4F90C20104408614869B4F90E20DB
:1032600010444861244800680005000D18BF70BD77
:103270000026E86C10B104F06BF9EE6404F05DF91F
:103280002865002804BFEE6470BD00210846FEF7E3
:10329000B3F8AE72194E00213046FEF7BFFA286D22
:1032A0001849DFF85CC0C088082301EB0012002138
:1032B00032F811002CF81100491C9942F8DB286DF6
:1032C000114982884A600068C8600846FEF756F8CF
:1032D00001213046FEF7A2FA01210020FEF78CF80A
:1032E0000120A872EC6470BD0434044000E100E0E9
:1032F0007C000010002100100C210040004008401C
:10330000282200100000002038220010022806D0D9
:10331000032818BF7047107802490870704710469C
:10332000FEF75ABE2C010010072888BF704730B442
:10333000FF24C30004281AD2DFF864C4DCF800506C
:103340009C4025EA0404CCF80040DCF800409A4098
:103350002243CCF80020DCF80020052303EBC0005A
:1033600001FA00F01043CCF8000030BC7047DFF8E1
:1033700034C4203B9C40DCF8005025EA0404CCF81F
:1033800000409A40DCF800301A43CCF80020DCF80A
:1033900000206FF01A0303EBC00001FA00F01043A5
:1033A000CCF8000030BC7047072888BF7047FE4A41
:1033B000012303FA00F0136804290CD3834313603C
:1033C00011F0040F14BF9060D06011F0080F14BF0B
:1033D0005061906170470343136011F0010F14BFF7
:1033E0009061506190607047EF49496A012202FA8A
:1033F00000F0084018BF01207047EB494A6A0123DA
:1034000003FA00F010434862704700B50122022120
:103410001046FFF789FF08210120FFF7C5FFE248AA
:10342000426A022142F002024262E048016000BDAD
:1034300070B4E04DDE4C297844F82100481CC0B23D
:10344000287005282FBF4FF0000C002070BC70477B
:103450000020CCF10406002E0DDD04EB800254F8B0
:1034600020105368994284BF44F820305160401CBA
:10347000C0B28642F1DC0CF1010000F0FF0CBCF19F
:10348000040FE5D3A068A968084432214843CA491B
:10349000A1FB00104009A8600020287070BC01202A
:1034A000704710B5C64C0A22C449204600F0DEFA27
:1034B00001221146204600F0F1FB012202212046A4
:1034C00000F0ECFB01220321204600F0E7FB012184
:1034D000204600F051FBBB490020086010BD2DE9DB
:1034E000F05FB9484FF00108C0F88081DFF8B8926A
:1034F000D9F8240010F0010F00F04B82DFF8B4A2DD
:10350000B248DAF804100288914200F03C82008848
:10351000CAF804000020FEF766FBAD4BDFF8B4B23A
:10352000AD49AE4AAE4FAF4CAF4DB04EDFF8C0C262
:1035300010F4007F04D010F4807F05D000F0F9B8BB
:1035400010F4807F00F0F180DAF80C00401ECAF819
:103550000C00DFF8A0A2BAF832E0C0F34F008645B5
:1035600000F01182AAF832009AF8360010F0010F2C
:103570001CBF1878002800F006829BF8000006287F
:1035800080F0FB81DFE800F00325496B8DAF086810
:103590000028B8BF404298490968884280F2ED810E
:1035A000108804F0DEFA8346386804F0D1FA5946F0
:1035B00004F0ADF8914904F0E0F8216804F0A4F8B3
:1035C0002060287840F001002870307840F0010039
:1035D00020E048680028B8BF4042DCF8001088426C
:1035E00080F2CB81108804F0BCFA8346786804F03E
:1035F000AFFA594604F08BF8804904F0BEF86168D0
:1036000004F082F86060287840F00200287030787A
:1036100040F00200307000F0B0B988680028B8BFF0
:10362000404277490968884280F2A781108804F0F7
:1036300098FA8346B86804F08BFA594604F067F8A4
:103640006E4904F09AF8A16804F05EF8A06028784A
:1036500040F004002870307840F00400DAE7C868D1
:103660000028B8BF404267490968884280F28581D6
:10367000108804F076FA8346F86804F069FA59462F
:1036800004F045F85D4904F078F8E16804F03CF88E
:10369000E060287840F008002870307840F008009A
:1036A000B8E708690028B8BF40425749096888420E
:1036B00080F26381108804F054FA8346386904F07C
:1036C00047FA594604F023F84C4904F056F82169AA
:1036D00004F01AF82061287840F010002870307843
:1036E00040F0100096E748690028B8BF40424749BB
:1036F0000968884280F24181108804F032FA8346DA
:10370000786904F025FA594604F001F83B4904F0C1
:1037100034F8616903F0F8FF6061287840F0200018
:103720002870307840F0200074E710F4407F40F0BB
:103730002A81DAF80C00401CCAF80C00DFF8B4A0AB
:10374000BAF832E0C0F34F00864500F01C81AAF8B9
:1037500032009AF8360010F0010F1CBF18780028CC
:1037600000F011819BF80000062880F00681DFE858
:1037700000F0035D7FA0C1E208680028B8BF4042A6
:103780001D490968884272DA108804F0EAF9834614
:10379000386804F0DDF9594603F0B9FF174937E0FE
:1037A000006E0840046E08400070084004E100E02C
:1037B000F8220010300100101F85EB51400D03006E
:1037C00000300E40886C084004E000E094000010D7
:1037D0004501001044010010042200104A010010AD
:1037E000CC210010A4220010830000107D000010E6
:1037F000F000001000210010EC0000100000C84292
:10380000F4000010F8000010FC000010000100108F
:1038100003F0B3FF216803F022FF2060287840F016
:1038200001002870307840F00100F3E64868002875
:10383000B8BF4042DCF80010884218DA108804F063
:1038400090F98346786804F083F9594603F05FFFE6
:103850007C4903F092FF616803F001FF6060287803
:1038600040F002002870307840F00200D2E683E099
:1038700088680028B8BF40427349096888427CDAEA
:10388000108804F06EF98346B86804F061F959466F
:1038900003F03DFF6B4903F070FFA16803F0DFFE0A
:1038A000A060287840F004002870307840F00400D0
:1038B000B0E6C8680028B8BF404264490968884239
:1038C0005BDA108804F04DF98346F86804F040F99B
:1038D000594603F01CFF5B4903F04FFFE16803F01A
:1038E000BEFEE060287840F008002870307840F094
:1038F00008008FE608690028B8BF404254490968AB
:1039000088423ADA108804F02CF98346386904F0CA
:103910001FF9594603F0FBFE4A4903F02EFF2169C7
:1039200003F09DFE2061287840F010002870307868
:1039300040F010006EE648690028B8BF4042454993
:103940000968884219DA108804F00BF9834678690F
:1039500004F0FEF8594603F0DAFE3A4903F00DFF91
:10396000616903F07CFE6061287840F020002870D7
:10397000307840F020004DE6FFE7BAF8240040F030
:103980008000AAF82400D9F8240040F00100C9F80A
:1039900024003148C0F80081BDE8F09F70B50024D4
:1039A0002046FEF720F905460520FEF71CF9032006
:1039B000FEF719F915F0400F18BF02240520FEF795
:1039C00012F910F4806F18BF44F0010410F4007F66
:1039D00018BF44F4807410F4807F18BF44F48064EE
:1039E00010F4006F18BF44F010040320FEF7FBF83A
:1039F00010F4006F18BF44F0040410F4806F18BF77
:103A000044F4007410F4007F18BF44F4006444F4DC
:103A1000405070BD00B5002108220846FFF784FC25
:103A20000C210020FFF7C0FC0C48426A012142F043
:103A3000010242620A4801600A48808C0A49C86053
:103A400000BD00000000C842F4000010F8000010A3
:103A5000FC0000100001001004E000E000700840CD
:103A600004E100E000210010300100102DE9F047D2
:103A7000DFF86883DFF8689315460E460446404534
:103A800018BF4C4503D04821D6A0FEF7E9F8DD4920
:103A9000701E884203D94921D2A0FEF7E1F8002028
:103AA0002060444503D1FCF777FF074605E04C450D
:103AB00003D10120FCF770FF0746681C704300EB40
:103AC00047014000B1FBF0F00002A0F58070C5F1A5
:103AD0000A0140EA414040F400102060BDE8F08750
:103AE00010B50446A0F18040B0F563201CBFA4F1DE
:103AF0008040B0F5642003D06C21BAA0FEF7B0F886
:103B0000206810F0E06F03D0206820F0E0602060B3
:103B1000206820F0FF002060206820F40010206062
:103B200010BD70B50546A0F180400C46B0F563208D
:103B30001CBFA5F18040B0F5642003D09921A9A055
:103B4000FEF78EF8002C18BF012C0CD0022C18BFE9
:103B5000032C08D0042C1CBF052C062C03D09A2162
:103B6000A0A0FEF77DF8286820F0E06028602868B3
:103B700040EA0460286070BD70B50446A0F1804042
:103B80000D46B0F563201CBFA4F18040B0F5642061
:103B900003D0AB2193A0FEF763F8206820F48030B7
:103BA0002060002D08BF70BD206840F48030206088
:103BB00070BD70B50446A0F180400D46B0F563209D
:103BC0001CBFA4F18040B0F5642003D0BD2185A0C6
:103BD000FEF746F8206820F400102060002D08BF92
:103BE00070BD206840F40010206070BD70B50446C0
:103BF000A0F180400D46B0F563201CBFA4F18040C9
:103C0000B0F5642003D0CF2176A0FEF729F8002D6F
:103C100018BF012D03D0D02172A0FEF721F8206833
:103C200020F000602060002D08BF70BD206840F0CB
:103C30000060206070BD70B50546A0F1804016465A
:103C40000C46B0F563201CBFA5F18040B0F56420A0
:103C500003D0E82163A0FEF703F8002C18BF012C65
:103C600010D0022C18BF032C0CD0042C18BF052C2C
:103C700008D0062C1CBF072C082C03D0E92159A022
:103C8000FDF7EEFFE9680120A0408143E960002EC6
:103C900008BF70BDE9680843E86070BD70B50446B0
:103CA000A0F1804015460E46B0F563201CBFA4F17C
:103CB0008040B0F5642003D0FC214AA0FDF7D0FF7E
:103CC0000120B0402168012D08BF084309D011F040
:103CD000E06F03D0216821F0E0612160216821EAD2
:103CE0000000206070BD70B50446A0F180400D4614
:103CF000B0F563201CBFA4F18040B0F5642004D06F
:103D00004FF4897137A0FDF7ABFF04EB8500008A03
:103D1000C0F3891070BD70B50546A0F1804014460F
:103D20000E46B0F563201CBFA5F18040B0F56420BD
:103D300004D04FF494712BA0FDF792FF002C18BF14
:103D4000012C04D04FF4957126A0FDF789FF05EBF7
:103D50008600002C006914BF00F0004000F0804095
:103D6000002818BF012070BD10B50446A0F18040A6
:103D7000B0F563201CBFA4F18040B0F5642004D0EE
:103D800040F2411117A0FDF76BFF606810BD70B5E0
:103D90000546A0F180400C46B0F563201CBFA5F19C
:103DA0008040B0F5642004D04FF4A9710DA0FDF758
:103DB00057FF002C18BF012C04D040F2531109A06A
:103DC000FDF74EFF6868002C14BF00F0004000F0C3
:103DD0008040002818BF012070BD000000300E4058
:103DE00000400E40447269766572735C736F757241
:103DF00063655C6C7063343378785F6164632E63F1
:103E0000000000003F0D030053400022002908DDA0
:103E100010F802C08CEA030C00F802C0521C914258
:103E2000F6DC43547047000010B5EA2812D0042392
:103E30004FF4107208210620FCF7A2FD01221104A4
:103E40000520FDF7B9FEBDE810404FF48031052094
:103E5000FDF7C3BE052310220821BDE8104006204F
:103E6000FCF78EBD10B5FE4C68B1FE494000C96834
:103E7000B1FBF0F201212046FDF7B7FD2046FDF72A
:103E8000F4FC012010BD4FF0FF3201212046FDF768
:103E9000ACFD2046FDF7E9FCF3E79EB000200F9053
:103EA0000E9007904FF47A77834604900290059025
:103EB000FEF70AFEEC4801250560EC490620087073
:103EC0000021EB48FDF7AAFCEA48002410A9046091
:103ED000E948DFF8AC8308AA0460E84801603220B2
:103EE0000990E848CDF840808DF820500470457066
:103EF000C570847004710021DD48FDF7E6FBE248DF
:103F00008DF830500D9505704470C570DE49847091
:103F100003200871001F88600CAA0021D048FDF71B
:103F2000D4FBD949CE48FDF7C4FC0121CC48FDF7AC
:103F300075FC6420D5490B908DF828502020C8636B
:103F4000D3490320D34E087008460AAA44708570EE
:103F5000C57000213046FDF7B8FBCD493046FDF76E
:103F600073FD3046FDF781FCCB49802008700102CB
:103F7000CA48016001213046FDF750FCFDF714F9F5
:103F8000C748C849C0F80C800460C0E90145C0E9D1
:103F900004158561C0E90754FDF71EF901210020D1
:103FA000FDF72AFA0121B248FDF738FC1120FCF791
:103FB000F3FCAC49BD4AC860BB49B0FBF1F1491EF6
:103FC00051617900B0FBF1F0401EB0F1807F08D262
:103FD0004FF0E0214861B64AE02010708C61072064
:103FE00008614FF4FA7003F05FFAFFF75AFA04F031
:103FF00053FFB049C0200870AF480021B14D0460A4
:1040000044608460C460AD48016041608160C1600B
:10401000AB4901200870A884AB480068AB4BAC49A1
:10402000AC4EAD4ADFF8B482AC2828D08F48007877
:1040300005282CBF4FF4FA704FF47A7008600A20FC
:10404000106041F2883A4FF47A7CC6F800A015203F
:10405000C8F800C0186009689B4881601168C16099
:10406000C0F810A0C0F814C019688161AC210160CB
:104070002C606C60AC60EC602C616C611BE0924861
:10408000D0F808C0C1F800C0C16811600169316092
:104090004169C8F8001081691960016A2960416AA4
:1040A0006960816AA960C16AE960016B2961416B3D
:1040B0006961806BA8618A488A4B016819608A4BE4
:1040C00041681960894B816819608949C068086036
:1040D0008849012008708849087088480480884809
:1040E00004708848047088480460884804808848C0
:1040F000047088480460884804805E4887490460EA
:104100004FF6F0700880864804807348006803F01A
:1041100028FDDFF810A2514603F02FFB514603F0B3
:104120002CFB504988608049042008604860886002
:10413000C860086148617D48684904704FF47A702E
:104140000860308880B2FDF70BFF6448008880B2B9
:10415000FFF702F800214648FDF760FBDFF80C810D
:10416000734898F8001005295B490968A0FB011005
:104170004FEAD0014FF0FF302CBF00EB810100EB84
:10418000410140483A4E816001463046FDF791FBBF
:1041900001213046FDF742FB4FF4DC526549664889
:1041A000FEF7CBFF654804600020FFF75BFE644824
:1041B000644E01880229FCD33088B0F57A7FFBD3A6
:1041C000FEF782FC08210520FDF701FD5D4800880F
:1041D000B0F5FA6FFAD35C495C4801260E700470A2
:1041E000DFF86CC1DCF804005B4A010E594801702D
:1041F0001170DCF80410C1F3074141705170DCF814
:104200000410C1F3072181709170DCF80410C170B3
:10421000D17098F8001001711171032141712221B0
:1042200081717321C1712749002088835323732230
:1042300007214848FFF7E8FD012004F0DBFD47486F
:104240000660FFF7E7FB0020FFF70CFEDFF81081A8
:104250001A4CDFF810A1444E00253A48018885E049
:1042600000300C404401001068140540800000102C
:1042700000400840C800001028010010CC000010C9
:10428000002200201C220010EC22001000700C40C4
:104290002101001000400C400FE400E000E100E0CC
:1042A0003822001004610F4060E3160000E0004077
:1042B00023ED00E008E400E0E4210010F421001008
:1042C000860000100021001000100440047100203E
:1042D00034640020A800001030640020AC000010FE
:1042E00000000420107100201471002018710020BB
:1042F0001C71002020010010840000108C000010B0
:104300007E00001082000010A0000010E4000010E9
:10431000E6000010E800001004700020E00000102B
:10432000400100100000C842CC2100107C000010A9
:10433000CDCCCCCCB095001A00000810043105405B
:1043400000700020940000107D00001002E400E0E6
:1043500000500440D800001030710020207100206F
:10436000BC220010042200100C230010F84A116037
:10437000DFF8E0C3DCF80010E9B90188F64B1A88D1
:10438000914201881A8805D9891A47F2315291421F
:1043900011DD0BE091420ED219884FF6FF72511ACF
:1043A0000288114447F231528A4204D201881980AE
:1043B0000121CCF80010E94801881498081A002857
:1043C000BCBF4FF6FF710844152825DDE34800887F
:1043D00014900121E248FFF786FC0121E048FFF735
:1043E00082FC0146DF484185DF480078002804BF91
:1043F000DC4880F8375004D0DC480178D94880F890
:1044000037100221D648FFF76EFC0221D448FFF78F
:104410006AFC0146D3488185FFF7C0FA0146D148BE
:104420000186D3490968ADF80010018CBDF8002061
:1044300091420ED0CF4BC9499A88B1F800C0B2EB77
:10444000DC0F06D0CC4AD2F8082102840988C908BA
:104450009980C4490A68C94802624A6842628A6807
:104460008262CA68C2620A6902634A6942638969F0
:104470008163AC210160C24800680005000D46D18F
:10448000BB480068ADF80000BE48D0F80C0100053C
:10449000000D3CD100210120FCF7BAFFB8BB002180
:1044A0000846FCF7A9FF03F048F8B7490028086060
:1044B00004BFB64805602AD0B54800210570B5484C
:1044C000FDF7ACF9B048B44908220068C08801EB98
:1044D0000011B248FDF712FCAB48B1490068828870
:1044E0004A600068C8600846FCF776FE012100209B
:1044F000FCF782FF0121A748FDF790F9A4490120AC
:104500000870A248A5490160A648042101609348AB
:1045100001881598081A0028BCBF4FF6FF7108449F
:10452000B0F57A7FA048007805DD28B99F4805607E
:104530008C4885832CE058B300219D48FDF76EF927
:10454000864800889B4915900868D8B1801C03F004
:1045500008FB0146984803F010F903F03EFB974929
:10456000974A0D8090490D7092490D60012111709C
:10457000FEF75EFF30B18D487A4900888883914903
:10458000022008808848012105708948FDF746F916
:104590007B4800680005000D1AD18B488B490088C4
:1045A0000988084314D16D4813990288914204D0B8
:1045B0000599491C0591008813900598B0F5C87FAE
:1045C00006D96848818C21F0800181840020059003
:1045D0006448818C11F0800F08D17D490978002949
:1045E0001CBF818C41F080017ED081845D48808C2D
:1045F00010F0800F02F0F784764800781C900028B5
:1046000000F09D8574487549C3691B93CB6182692D
:104610008A61436A1A934B62026A0A62C36A1993F7
:10462000CB62826A8A62D0F804C0C1F804C0036811
:104630000B600393C3681893CB6082688A604369F8
:1046400017934B6100690861604603F081FA49499C
:10465000169089680091019103F059F8019903F0CF
:1046600056F8C8F818001290189803F071FA0199DA
:1046700003F04DF8019903F04AF8C8F81C001798A8
:1046800003F066FA019903F042F8019903F03FF84C
:10469000C8F820001B9803F05BFA019903F037F883
:1046A000019903F034F8C8F824001A9803F050FA7E
:1046B000019903F02CF8019903F029F8C8F82800B3
:1046C000199803F045FA019903F021F8019903F0D4
:1046D0001EF8C8F82C001C993E4811F0C00F09D0F4
:1046E000204991F8361000E022E011F0010F1CBFC4
:1046F0003F2101703748007810F0010F72D01D483B
:10470000407820B336480068019003F04DFA014626
:10471000DAF80000314A0844CAF80000106308467D
:1047200003F016FA019902F0EFFF2D49086060E0EE
:1047300025490A88254909880A430C490978114303
:1047400004BF818C21F080017FF450AF4DE74AE037
:104750002871002020710020E0000010940000105B
:1047600000300E4000210010820000108100001077
:1047700008610F404401001000600F400010044029
:104780000C21004000200040CC000010C8000010A8
:104790008600001000400840000000202822001081
:1047A0003822001000E100E07E0000103801001007
:1047B00000400C40A00000108096184B8C000010A8
:1047C000840000108E00001010640020006400209F
:1047D000830000107D000010842100105C22001076
:1047E000A422001092E0FE48FE49006B0863CAF85C
:1047F0000000039803F0ACF90390009902F087FFE2
:10480000C8F8000010F0FF4F04BF4FF07E50C8F80A
:104810000000169801900099039802F0AEFF0199EC
:1048200002F0ABFFD8F80010039102F070FF03F024
:10483000BBF9ED4908601690009803F01AFACDE92B
:104840000001039803F015FAE84AE94B03F088F8F1
:10485000DDE9002303F0F6F803F0D3F9E549086039
:104860000121129802F0C9FF00903068014602F061
:104870004EFF009902F081FF03F096F9DE490860CF
:104880000090169803F072F903911290009803F0CB
:104890006DF9CDE90001D348006B03F067F9DDE95C
:1048A000002321F0004102F0B4FF039B129A03F0B1
:1048B000F3F94DD2D8F8180003F0DBF90391129008
:1048C000CD48006803F052F9CDE90001C548006BFE
:1048D00003F04CF9DDE9002321F0004102F099FFDB
:1048E000039B129A03F03CF804F05EFA03F0FCF923
:1048F000C8F80000B0F1804FBCBF4FF08040C8F84E
:104900000000BE48017841F001010170BC48007808
:1049100010F0020F7DD0BB484078F0B1DAF8040007
:1049200003F016F9B8494968009102F098FE03F0C7
:104930003BF9AC49CAF804004863009803F034F925
:1049400003F006F9009902F0DFFEAF4948600AE083
:10495000AA48017821F00101D7E7A148A149406B9D
:104960004863CAF804009F48806803F0F1F8A5493D
:1049700000908968019102F0CAFEC8F8040010F0A6
:10498000FF4F04BF4FF07E50C8F804009548C06840
:1049900003F0DEF80390DDE9000102F0EEFE03997A
:1049A00002F0EBFED8F80410039102F0B0FE03F021
:1049B000FBF8964908601290019803F05AF9CDE986
:1049C0000001039803F055F9884A894B02F0C8FFAB
:1049D000DDE9002303F036F803F013F98C49086091
:1049E0000121D8F81C0002F008FF0090B0680146D1
:1049F00002F08DFE009902F0C0FE03F0D5F8854963
:104A000008600090129803F0B1F80391129000989A
:104A100000E042E003F0AAF8CDE900017148406BE4
:104A200003F0A4F8DDE9002321F0004102F0F1FEDB
:104A3000039B129A03F030F952D2D8F81C0003F00D
:104A400018F9039112907348006803F08FF8CDE9CC
:104A500000016448406B03F089F8DDE9002321F090
:104A6000004102F0D6FE039B129A02F079FF04F097
:104A70009BF903F039F9C8F80400B0F1804FBCBFCE
:104A80004FF08040C8F804005C48017841F0020112
:104A900001705448406BCAF804005948007810F07F
:104AA000040F7DD057484078F8B1DAF8080003F0D9
:104AB0004FF855498968009102F0D1FD03F074F870
:104AC0004849CAF808008863009803F06DF803F0BD
:104AD0003FF8009902F018FE01464B4881600AE059
:104AE0004648017821F00201D2E73D483D49806BFC
:104AF0008863CAF808003B48006903F029F8414977
:104B000000908968019102F002FEC8F8080010F0D8
:104B1000FF4F04BF4FF07E50C8F80800314840698D
:104B200003F016F80390DDE9000102F026FE039978
:104B300002F023FED8F80810039102F0E8FD03F01C
:104B400033F8354908601290019803F092F8CDE9E6
:104B50000001039803F08DF8244A254B02F000FF72
:104B6000DDE9002302F06EFF03F04BF82B490860EB
:104B70000121D8F8200002F040FE00903069014683
:104B800002F0C5FD009902F0F8FD03F00DF824498C
:104B900008600090129802F0E9FF0391129000E083
:104BA00062E0009802F0E2FFCDE900010D48806B61
:104BB00002F0DCFFDDE9002321F0004102F029FED4
:104BC000039B129A03F068F871D2D8F8200003F022
:104BD00050F8039112901248006802F0C7FF21E0DC
:104BE000842100105C220010B00000109A9999995D
:104BF0009999D93FEC00001004010010E200001068
:104C00007D00001044010010A4220010B400001028
:104C1000F000001008010010B8000010F4000010AF
:104C20000C010010CDE90001FE48806B02F09EFFF0
:104C3000DDE9002321F0004102F0EBFD039B129A15
:104C400002F08EFE04F0B0F803F04EF8C8F8080049
:104C5000B0F1804FBCBF4FF08040C8F80800F24868
:104C6000017841F004010170F048007810F0080F5D
:104C70007ED0EF484078F8B1DAF80C0002F068FF17
:104C8000EC49C968009102F0EAFC02F08DFFE549A9
:104C9000CAF80C00C863009802F086FF02F058FFC3
:104CA000009902F031FDE349C8600BE0FFE7DE4800
:104CB000017821F00401D6E7DF48DA49C06BC86308
:104CC000CAF80C00D748806902F042FFD84900902A
:104CD0008968019102F01BFDC8F80C0010F0FF4F2D
:104CE00004BF4FF07E50C8F80C00CE48C06902F0F7
:104CF0002FFF0390DDE9000102F03FFD039902F070
:104D00003CFDD8F80C10039102F001FD02F04CFFBD
:104D1000CA4908601290019802F0ABFFCDE900018A
:104D2000039802F0A6FFC64AC64B02F019FEDDE961
:104D3000002302F087FE02F064FFC34908600121EE
:104D4000D8F8240002F059FD0090B069014602F045
:104D5000DEFC009902F011FD02F026FFBB4908605D
:104D60000090129802F002FF03911290009800E068
:104D70003EE002F0FBFECDE90001AA48C06B02F064
:104D8000F5FEDDE9002321F0004102F042FD039B26
:104D9000129A02F081FF4DD2D8F8240002F069FF88
:104DA00003911290A948006802F0E0FECDE90001ED
:104DB0009C48C06B02F0DAFEDDE9002321F00041DF
:104DC00002F027FD039B129A02F0CAFD03F0ECFFEC
:104DD00002F08AFFC8F80C00B0F1804FBCBF4FF062
:104DE0008040C8F80C009048017841F0080101703B
:104DF0008E48007810F0100F7DD08D484078F0B1CB
:104E0000DAF8100002F0A4FE8A490969009102F064
:104E100026FC02F0C9FE8349CAF810000864009815
:104E200002F0C2FE02F094FE009902F06DFC81498E
:104E300008610AE07C48017821F00801D7E77E4844
:104E40007849006C0864CAF810007648006A02F0DD
:104E50007FFE774900908968019102F058FCC8F8FC
:104E6000100010F0FF4F04BF4FF07E50C8F8100044
:104E70006C48406A02F06CFE0390DDE9000102F02C
:104E80007CFC039902F079FCD8F81010039102F031
:104E90003EFC02F089FE6E4908601290019802F013
:104EA000E8FECDE90001039802F0E3FE644A654B99
:104EB00002F056FDDDE9002302F0C4FD02F0A1FE80
:104EC000644908600121D8F8280002F096FC00909F
:104ED000306A014602F01BFC009902F04EFC02F021
:104EE00063FE5D4908600090129802F03FFE039156
:104EF0001290009800E03EE002F038FECDE900019B
:104F00004848006C02F032FEDDE9002321F0004148
:104F100002F07FFC039B129A02F0BEFE4ED2D8F83C
:104F2000280002F0A6FE039112904B48006802F0A0
:104F30001DFECDE900013B48006C02F017FEDDE9E3
:104F4000002321F0004102F064FC039B129A02F05E
:104F500007FD03F029FF02F0C7FEC8F81000B0F10A
:104F6000804FBCBF4FF08040C8F810002E48017839
:104F700041F0100101702D48007810F0200F6FD023
:104F80002B484078F8B1DAF8140002F0E1FD294925
:104F90004969009102F063FB02F006FE2149CAF85C
:104FA00014004864009802F0FFFD02F0D1FD009962
:104FB00002F0AAFB01461F4841610AE01A48017845
:104FC00021F01001D6E71C481649406C4864CAF825
:104FD00014001448806A02F0BBFD154900908968EE
:104FE000019102F094FBC8F8140010F0FF4F04BFC9
:104FF0004FF07E50C8F814000A48C06A02F0A8FDBD
:105000000390DDE9000102F0B8FB039902F0B5FB63
:10501000D8F81410039102F07AFB02F0C5FD0F4995
:1050200008601EE05C220010E20000107D0000100D
:1050300044010010A422001084210010BC000010C4
:105040009A9999999999D93FF80000101001001088
:10505000C0000010FC00001014010010C40000107B
:105060006BE01290019802F004FECDE90001039874
:1050700002F0FFFDF84AF94B02F072FCDDE9002373
:1050800002F0E0FC02F0BDFDF54908600121D8F80E
:105090002C0002F0B2FB0090B06A014602F037FB30
:1050A000009902F06AFB02F07FFDEE490860009073
:1050B000129802F05BFD03911290009802F056FDE9
:1050C000CDE90001E848406C02F050FDDDE9002325
:1050D00021F0004102F09DFB039B129A02F0DCFDDF
:1050E00073D2D8F82C0002F0C4FD03911290DD4871
:1050F000006802F03BFDCDE90001DB48406C02F0A6
:1051000035FDDDE9002321F0004102F082FB039B25
:10511000129A02F025FC03F047FE02F0E5FDC8F804
:105120001400B0F1804FBCBF4FF08040C8F81400AD
:10513000CE48017841F020010170CD480570CD487E
:1051400001684FF4FA60B0FBF1F0CB49098888425E
:1051500041F24987C948017811F0010F7ED0C84A51
:10516000107840F001001070DAF80030002B31DACE
:10517000D8F80000316880F0004002F0D1FD0ED276
:10518000D8F81810306802F0BCFA3060D8F8001077
:1051900081F000430146184602F0CCFD3FD2D8F81A
:1051A000000080F000403060716802F058FA009012
:1051B00002F0FAFC00B2A08002F0CAFC014600989E
:1051C00002F09FFA70603AE0FFE7A848017821F00A
:1051D0002001B1E77ADDD8F80010306802F0A0FDB8
:1051E0000AD2D8F81810306802F039FA3060D8F8CE
:1051F000001002F09FFD12D2D8F8000030607168F4
:1052000002F02DFA009002F0CFFC00B2A08002F074
:105210009FFC0146009802F074FA70600FE0D6E936
:10522000000102F01CFA009002F0BEFC00B2A08067
:1052300002F08EFC0146009802F063FA7060D8F824
:10524000180002F0B1FC821C8E488F490260B4F94C
:105250000400B1F90410401A002800E09DE0B8BF36
:105260004042904204DDA180084602F071FC3060AB
:10527000B4F904000028B8BF404202F077FCCDE941
:105280000001DAF8000002F071FCDDE9002321F0F2
:10529000004102F001FD22D2DAF80010009108B2BC
:1052A000A080019002F054FCC6E900057348017823
:1052B00021F001010170DDE90010081A7249CAF8F5
:1052C00000000198888001F0EABDFFE720F00100AE
:1052D00010706A4821F00101017001F0E0BDB4F9DD
:1052E0000410DAF80000401ACAF80000039066487B
:1052F00081806648006800EBD070401002F036FCF8
:10530000CDE90001039802F031FCDDE9002321F032
:10531000004102F0C1FC04D85448007810F0010F9D
:1053200034D05248007810F0010F36D0B4F9041090
:105330000091D8F8000002F037FC00990029B8BFAE
:1053400049420028B8BF4042814226DB4F485049BD
:1053500000680968C21700EB9270801001EBD171F0
:1053600000EB610002F002FCCDE90001DAF8000078
:1053700002F0FCFBDDE9002321F0004102F08CFC8F
:105380000BD83E48017821F0010137E13B48017814
:1053900021F00101017001F082BD3848007810F061
:1053A000020F77D0364A117841F002011170DAF815
:1053B0000430002B2BDAD8F80400B16880F00040EC
:1053C00002F0AEFC0ED2D8F81C10B06802F099F9C9
:1053D000B060D8F8041081F000430146184602F08E
:1053E000A9FC58D2D8F8040080F00040B060F16801
:1053F00002F035F9009002F0D7FB00B2E08002F035
:10540000A7FB0146009802F07CF9F06053E07DDDD7
:10541000D8F80410B06802F083FC0AD2D8F81C1047
:10542000B06802F01CF9B060D8F8041002F082FCF9
:1054300031D2D8F80400B060F16802F010F90090A1
:1054400002F0B2FB00B2E08002F082FB014600985D
:1054500002F057F9F0602EE09A9999999999D93FFD
:1054600000010010180100105C220010E200001082
:105470007D000010306400200064002083000010D4
:10548000810000101C010010E4210010B000001089
:1054900004010010B5E0D6E9020102F0E0F8009046
:1054A00002F082FB00B2E08002F052FB014600985D
:1054B00002F027F9F060D8F81C0002F075FB821C9E
:1054C000F748F8490260B4F90600B1F90610401A2D
:1054D0000028B8BF4042904204DDE180084602F057
:1054E00037FBB060B4F906000028B8BF404202F0B4
:1054F0003DFBCDE90001DAF8040002F037FBDDE9FD
:10550000002321F0004102F0C7FB00E019E01FD2A8
:10551000DAF80410009108B2E080019002F018FB64
:10552000C6E90205E048017821F002010170DDE9D9
:105530000010081ADB49CAF804000198C88001F07D
:10554000AEBC21F002011170D74920F0020013E136
:10555000B4F90610DAF80400401ACAF804000390FF
:10556000D048C180D148006800EBD070401002F0F4
:10557000FDFACDE90001039802F0F8FADDE9002315
:1055800021F0004102F088FB04D8C948007810F0EF
:10559000020F2FD0C648007810F0020F31D0B4F9B6
:1055A00006100091D8F8040002F0FEFA00990029D4
:1055B000B8BF49420028B8BF4042814221DBBB4806
:1055C000BC4900680968C21700EB9270801001EBBB
:1055D000D17100EB610002F0C9FACDE90001DAF8FF
:1055E000040002F0C3FADDE9002321F0004102F0DB
:1055F00053FB06D8AC48017821F00201017001F09C
:105600004EBCA948007810F0040F7DD0AA4A11784A
:1056100041F004011170DAF80830002B2BDAD8F8C9
:105620000800316980F0004002F07AFB0ED2D8F811
:105630002010306902F065F83061D8F8081081F068
:1056400000430146184602F075FB39D2D8F808002D
:1056500080F000403061716902F001F8009002F0C2
:10566000A3FA00B2208102F073FA0146009802F01A
:1056700048F8706134E079DDD8F80810306902F03C
:105680004FFB0AD2D8F82010306901F0E8FF3061F2
:10569000D8F8081002F04EFB12D2D8F8080030619A
:1056A000716901F0DCFF009002F07EFA00B2208107
:1056B00002F04EFA0146009802F023F870610FE004
:1056C000D6E9040101F0CBFF009002F06DFA00B2C0
:1056D000208102F03DFA0146009802F012F8706154
:1056E000D8F8200002F060FA821C6D486D49026013
:1056F000B4F90800B1F90810401A0028B8BF4042B8
:10570000904206DD218100E090E0084602F020FA98
:105710003061B4F908000028B8BF404202F026FA10
:10572000CDE90001DAF8080002F020FADDE90023F3
:1057300021F0004102F0B0FA21D2DAF8081000910D
:1057400008B22081019002F003FA306156480178D6
:1057500021F004010170DDE90010081A5149CAF86E
:1057600008000198088101F09ABBFFE721F00401CD
:1057700011704D4920F00400087001F090BBB4F99D
:105780000810DAF80800401ACAF8080003904548E3
:1057900001814A48006800EBD070401002F0E6F941
:1057A000CDE90001039802F0E1F9DDE9002321F0E1
:1057B000004102F071FA04D83D48007810F0040F5F
:1057C0002FD03B48007810F0040F2FD0B4F9081008
:1057D0000091D8F8080002F0E7F900990029B8BF55
:1057E00049420028B8BF404281421FDB3348344958
:1057F00000680968C21700EB9270801001EBD1714C
:1058000000EB610002F0B2F9CDE90001DAF808001E
:1058100002F0ACF9DDE9002321F0004102F03CFA8E
:1058200004D82148017821F00401E7E61E480078F9
:1058300010F0080F7ED0204A117841F00801117055
:10584000DAF80C30002B3DDAD8F80C00B16980F0A2
:10585000004002F065FA0ED2D8F82410B06901F0C9
:1058600050FFB061D8F80C1081F000430146184693
:1058700002F060FA4BD2D8F80C0080F00040B06122
:10588000F16901F0ECFE009002F08EF900B2608147
:1058900002F05EF90146009801F033FFF06146E046
:1058A0001C010010E421001083000010B40000105F
:1058B000E20000100801001081000010B800001084
:1058C0000C0100107ADDD8F80C10B06902F028FA4B
:1058D0000AD2D8F82410B06901F0C1FEB061D8F83E
:1058E0000C1002F027FA12D2D8F80C00B061F1695E
:1058F00001F0B5FE009002F057F900B2608102F0AD
:1059000027F90146009801F0FCFEF0610FE0D6E9AE
:10591000060101F0A4FE009002F046F900B2608199
:1059200002F016F90146009801F0EBFEF061D8F89C
:10593000240000E0A0E002F037F9821CFE48FF4995
:105940000260B4F90A00B1F90A10401A0028B8BF81
:105950004042904204DD6181084602F0F9F8B061EE
:10596000B4F90A000028B8BF404202F0FFF8CDE9C0
:105970000001DAF80C0002F0F9F8DDE9002321F06B
:10598000004102F089F920D2DAF80C10009108B237
:105990006081019002F0DCF8C6E90605E84801786C
:1059A00021F008010170DDE90010081AE349CAF886
:1059B0000C000198488101F072BAFFE721F008015C
:1059C0001170DF4920F00800D6E6B4F90A10DAF8C1
:1059D0000C00401ACAF80C000390D8484181D948FD
:1059E000006800EBD070401002F0C0F8CDE9000173
:1059F000039802F0BBF8DDE9002321F0004102F03A
:105A00004BF904D8D048007810F0080F2FD0CE48BA
:105A1000007810F0080F2FD0B4F90A100091D8F8D0
:105A20000C0002F0C1F800990029B8BF49420028D3
:105A3000B8BF404281421FDBC248C44900680968C0
:105A4000C21700EB9270801001EBD17100EB610086
:105A500002F08CF8CDE90001DAF80C0002F086F8CB
:105A6000DDE9002321F0004102F016F904D8B44822
:105A7000017821F00801C1E5B148017811F0100F5B
:105A80007ED0B34A107840F010001070DAF8103071
:105A9000002B2BDAD8F81000316A80F0004002F0B9
:105AA0003FF90ED2D8F82810306A01F02AFE306291
:105AB000D8F8101081F000430146184602F03AF978
:105AC00039D2D8F8100080F000403062716A01F0DD
:105AD000C6FD009002F068F800B2A08102F038F82C
